:020000040800F2
:10000000C819012029020008771300081F120008F0
:1000100075130008CB040008151500080000000047
:100020000000000000000000000000007B1300083A
:10003000CD04000800000000791300087D130008BB
:10004000430200084302000843020008430200087C
:10005000430200084302000843020008430200086C
:10006000430200084302000843020008430200085C
:10007000430200084302000843020008430200084C
:10008000430200084302000843020008430200083C
:10009000430200084302000843020008430200082C
:1000A000430200084302000843020008430200081C
:1000B000430200084302000843020008430200080C
:1000C00043020008430200084302000843020008FC
:1000D00043020008430200084302000843020008EC
:1000E00043020008430200084302000843020008DC
:1000F00043020008430200084302000843020008CC
:1001000043020008430200084302000843020008BB
:1001100043020008430200084302000825140008B7
:10012000430200084302000843020008430200089B
:10013000430200084302000843020008430200088B
:10014000430200084302000843020008430200087B
:10015000430200084302000843020008430200086B
:10016000430200084302000843020008430200085B
:100170004302000843020008430200080000000098
:10018000430200084302000800F002F800F03CF8C7
:100190000AA090E8000C82448344AAF10107DA45E2
:1001A00001D100F031F8AFF2090EBAE80F0013F0F8
:1001B000010F18BFFB1A43F001031847A80C0300F6
:1001C000C80C0300103A24BF78C878C1FAD8520787
:1001D00024BF30C830C144BF04680C6070470000C1
:1001E0000023002400250026103A28BF78C1FBD840
:1001F000520728BF30C148BF0B6070471FB52CF0B5
:1002000026F81FBD10B510BD00F025F91146FFF707
:10021000F5FF23F0FBFA00F043F903B4FFF7F2FF18
:1002200003BC00F04BF9000009488047094800472B
:10023000FEE7FEE7FEE7FEE7FEE7FEE7FEE7FEE796
:10024000FEE7FEE704480549054A064B70470000F3
:100250001514000889010008C8050120C8190120EB
:10026000C8090120C809012053EA020C00F0698086
:100270002DE9F04B4FF00006002B1FBFB3FA83F5BA
:1002800003FA05F424FA05F65E4012BF1643B2FAEB
:1002900082F502FA05F4C5F120051EBF22FA05FC1D
:1002A00044EA0C04203556EA044C4FEA144418BFC3
:1002B000641C4FF000084FF00009904271EB030CF2
:1002C00039D3002919BFB1FA81F701FA07F6B0FA5C
:1002D00080F700FA07F6C7F120071EBF20FA07FCD7
:1002E00046EA0C062037B6FBF4FCA7EB0507103FE7
:1002F00007F01F0BCBF120060CFA0BFB2CFA06F6CD
:1003000044BFB3460026202FA4BF5E464FF0000B2B
:100310005BEA060C08BF4FF0010B19EB0B09ABFBB6
:10032000027C48EB0608C01B06FB02CC0BFB03CC8F
:1003300071EB0C01C1E70B46024641464846BDE859
:10034000F08B13B54FF000004FF00001AFF30080C9
:10035000BDE81C40704710B54C1084EA530404D526
:100360004042C1F1000138BF491E1B4204D5524230
:10037000C3F1000338BF5B1EFFF776FF14F0804F18
:1003800004D04042C1F1000138BF491E14F0004FB3
:1003900004D05242C3F1000338BF5B1E10BD10B53C
:1003A000203AC0F00B80B1E81850203AA0E818506D
:1003B000B1E81850A0E81850BFF4F5AF5FEA027C2E
:1003C00024BFB1E81850A0E8185044BF18C918C09D
:1003D000BDE810405FEA827C24BF51F8043B40F83E
:1003E000043B08BF7047D20728BF31F8023B48BF23
:1003F00011F8012B28BF20F8023B48BF00F8012B61
:1004000070474FF0000200B51346944696462039D7
:1004100022BFA0E80C50A0E80C50B1F12001BFF4BD
:10042000F7AF090728BFA0E80C5048BF0CC05DF823
:1004300004EB890028BF40F8042B08BF704748BF71
:1004400020F8022B11F0804F18BF00F8012B7047E5
:10045000704770477047754600F02CF8AE460500AF
:100460006946534620F00700854618B020B5FFF7CF
:10047000E9FEBDE820404FF000064FF000074FF0C6
:1004800000084FF0000B21F00701AC46ACE8C009B2
:10049000ACE8C009ACE8C009ACE8C0098D467047BB
:1004A00010B50446AFF300802046BDE81040FFF7CA
:1004B000B4BE0000004870476405012001491820BF
:1004C000ABBEFEE7260002007047FEE7704772B63B
:1004D000FEE7000030B5B3F5804F05D06FF07041F6
:1004E00040F82210002030BD8C690B688D682343D2
:1004F0004C688989240144EA0524234343EA0141E5
:1005000050F82230014C23401943E9E70000F0CFB6
:1005100010B50A6850F8223023F0010340F8223069
:100520008C68082C23D000234A682243CC681C43E3
:100530000B6922431A434B690E4C1A43CB691A4389
:100540000B6A1A434B6A1A438B6A1A43CB6A1A43E3
:100550000B6B1A438B691343CA6B09681A4350F833
:100560002130A343134340F82130002010BD402325
:10057000DAE700007FFF0F0030B5D1E9003443EA2D
:1005800004138C688D89240244EA054423430C8AB1
:10059000094D00EB820005EB045423430C7D6D01F3
:1005A00005EB0464896923430B43416801F0404132
:1005B0000B434360002030BD0000F0FF70B50446DF
:1005C00000F056F90546601C02D004480078044447
:1005D00000F04EF9401BA042FAD370BD1C00002071
:1005E000F0B587B014216846FFF70BFF1A48016881
:1005F00000292FD10121016018480024016841F031
:10060000010101600068022500F0010005904FF62D
:100610008070CDE9000502AA03260C2782E8D000ED
:1006200069460F4800F022F84CF23370CDE900051E
:1006300002AA694682E8D0000A4800F017F841F2A1
:100640000400CDE9000502AA694682E8D000064808
:1006500000F00CF807B0F0BD14000020383802405C
:1006600000100240000C0240001802402DE9F84F33
:10067000DFF8BCA10022012503264FF00F090AF183
:10068000040BAAF1040E00BF0B6805FA02F4234024
:10069000A34270D10F7907F00307012F01D0022F79
:1006A00016D187684FEA420806FA08FC27EA0C07C9
:1006B000D1F80CC00CFA08FC4CEA070CC0F808C0D2
:1006C0004768A7430C79C4F3001494403C4344604A
:1006D0000C79E443A4070AD0C4684FEA420C06FA36
:1006E0000CF7BC438F6807FA0CF72743C7600C79F7
:1006F00004F00304022C12D1D40800EB840CDCF8C3
:1007000020405707FF0E09FA07F824EA0804D1F839
:10071000108008FA07F848EA0408CCF8208004683A
:100720004FEA420C06FA0CF7BC430F7907F00307B7
:1007300007FA0CF7274307604C6814F4403F70D069
:100740003C4C276847F480472760246822F0030761
:1007500004F480440094384C07EB040CDCF808489F
:1007600097074FEA177809FA08F7BC43334FB842A6
:1007700002D1002724E054E0314FB84201D10127D3
:100780001EE0304FB84201D1022719E02E4FB84287
:1007900001D1032714E02D4FB84201D104270FE007
:1007A0002B4FB84201D105270AE02A4FB84201D1A8
:1007B000062705E0284FB84201D1072700E00827A7
:1007C00007FA08F72743CCF80878DAF800405746CC
:1007D000D1F804C09C435FEACC2C00D51C433C609C
:1007E000DBF800405F46D1F804C09C435FEA8C2CE4
:1007F00000D51C433C60DEF800407746D1F804C0C9
:100800009C435FEA8C3C00D51C433C60084F083F8A
:100810003C68D1F804C09C435FEACC3C00D51C4343
:100820003C60521C102AFFF42FAFBDE8F88F000087
:10083000083C0140443802400030014000000240C2
:100840000004024000080240000C02400010024078
:100850000014024000180240001C024000690840D9
:1008600000D0012070470AB1816170470904FBE79D
:1008700001488068704700001C0000200248816821
:1008800002781144816070471C0000200B4810B5AD
:10089000016841F400710160016841F48061016008
:1008A000016841F480710160032000F06FF80F20AF
:1008B00000F006F800F024F8002010BD003C0240D3
:1008C00070B50D4D04464FF47A712878B1FBF0F005
:1008D0000A490968B1FBF0F000F01AFB48B9102C86
:1008E00007D200222146501E00F030F800206C6034
:1008F00070BD012070BD00001C00002028000020F9
:100900000A4808B5016841F480410160006800F4BC
:10091000804000900548001F016841F0805101604F
:10092000006800F08050009008BD0000443802408C
:10093000002809DB00F01F020121914040098000DE
:1009400000F1E020C0F8001170470000F0B40E4B39
:100950001B680C46C3F30223C3F10705042D00D91D
:100960000425191D072901D2002300E0DB1E012602
:1009700006FA05F1491E214099409E40761E164018
:100980003143F0BC00F08CBE0CED00E0064900F0F5
:10099000070208684FF6FF03184040EA0220034AA6
:1009A00010430860704700000CED00E00000FA05FD
:1009B0002DE9F0470E46050065D0DFF81481D8F820
:1009C0000000F7B200F00700B04207D288F80070CC
:1009D000D8F8000000F00700B04254D128683D4C20
:1009E000810712D5400703D5206840F4E05020600D
:1009F0002878000703D5206840F460402060206814
:100A0000A96820F0F000084320602878C0072DD0A6
:100A1000304968680839012812D0022813D0032809
:100A200011D00968890700292DDA216821F0030116
:100A300001432160FFF71CFF814641F2883A0EE036
:100A400009688903EFE709688901ECE7FFF710FF00
:100A5000A0EB0901514502D90320BDE8F0872068C9
:100A6000696800F00C00B0EB810FEFD1D8F80010EE
:100A7000404601F00701B14207D90770006800F055
:100A80000700B04201D00120E7E72878400705D5EC
:100A90002068E96820F4E0500843206028780007C7
:100AA00006D52068296920F4604040EAC100206032
:100AB00000F018F82168084AC1F30311515CC840DE
:100AC0000649086006480068FFF7FAFE0020C4E700
:100AD000003C02400838024058C2020828000020AA
:100AE00020000020154810B5006810F00C021448D2
:100AF00013D04110042A0FD0082A0ED10F4C241F06
:100B00002268236802F03F025B0207D52068C0F329
:100B10008810A0FB010106E0084610BD2168C1F362
:100B20008811A1FB00010023FFF79EFB2168C1F3A0
:100B30000141491C4900B0FBF1F010BD08380240EA
:100B40000024F4002DE9F84F04006ED02078DFF87F
:100B50004C93C007A9F104054AD009F104000168CB
:100B6000C1F38101012908D00068C0F38100022887
:100B70000AD1D9F80000400206D52868800337D58D
:100B800060680028E1D033E06068B0F5803F10D0A5
:100B9000B0F5A02F286810D020F480302860286895
:100BA00020F4802028606068A8B1FFF761FE064647
:100BB0000DE0286840F48030F4E740F4802028609D
:100BC000F7E700BFFFF754FE801B642873D828683E
:100BD0008003F7D50CE0FFF74BFE064605E000BFAB
:100BE000FFF746FE801B6428F0D828688003F7D4FE
:100BF0002078DFF8AC8280074FF0000A3ED5A74886
:100C0000001D016811F00C0F08D00068C0F38100CE
:100C100002280BD1D9F80000400207D428688007C9
:100C200016D5E068012800D112E033E1E068B8B1E0
:100C30000120C8F80000FFF71BFE064605E000BFD4
:100C4000FFF716FE801B0228C0D828688007F7D55A
:100C50002868216920F0F80040EAC10028600DE012
:100C6000C8F800A0FFF704FE064604E0FFF700FE08
:100C7000801B02281FD828688007F7D42078000737
:100C800022D5864F87486169703771B101210160B3
:100C9000FFF7EEFD064604E0FFF7EAFD801B0228A1
:100CA00009D838688007F7D50EE0C0F800A0FFF734
:100CB000DFFD064605E082E0FFF7DAFD801B022833
:100CC0007DD838688007F7D42078400768D5DFF8EA
:100CD000CCB100270BF13C0BDBF80000C0000BD4BB
:100CE000DBF8001041F08051CBF80010DBF8000079
:100CF000012700F0805000906B4E3068C00510D482
:100D0000306840F480703060FFF7B2FD009005E07D
:100D1000FFF7AEFD0099401A022850D83068C00590
:100D2000F6D55E4EA0686C3601280FD005283068D5
:100D300010D020F001003060306820F004003060F6
:100D4000A068B8B1FFF794FD00900FE0306840F064
:100D50000100F4E740F004003060F7E7FFF788FD9A
:100D60000099411A41F28830814266D83068800784
:100D7000F4D50EE0FFF77CFD009007E0FFF778FD6B
:100D80000099411A41F28830814256D83068800774
:100D9000F4D42FB1DBF8001021F08051CBF8001013
:100DA000A069C8B33D49091D0968C1F38101022941
:100DB0004AD00228504607D0C8F8600000E03CE066
:100DC000FFF756FD04463BE04746C8F86000FFF7D2
:100DD0004FFD064605E000BFFFF74AFD801B0228D5
:100DE0002BD828688001F7D4D4E907010843A16A09
:100DF0002E4A490802EB0141626A41EA8211084326
:100E000094F82C1040EA0161C9F8001001203866FE
:100E1000FFF72EFD044606E03EE000BFFFF728FD89
:100E2000001B022809D828688001F7D534E000BFEC
:100E3000FFF71EFD001B022802D90320BDE8F88F32
:100E400028688001F4D427E00128F7D0D9F8000001
:100E5000E26900F4800191421CD1226A00F03F0156
:100E6000914217D147F6C071626A0140B1EB821F0F
:100E700010D1A26A4FF0FF3300F4403103EB52026D
:100E8000B1EB024F06D194F82C1000F07060B0EB7B
:100E9000016F01D00120D1E70020CFE704380240E4
:100EA00000004742800E4742007000400000FFFFF4
:100EB00070B515460E46040003D094F8490010B1F1
:100EC00007E0012070BD002084F84800204600F0B3
:100ED0001DF804F108012068FFF71AFB3146A268EB
:100EE0002068FFF749FBD4E901022946236BFFF78D
:100EF000F1FA2168A06851F8202042F0010241F87F
:100F00002020012084F84900002070BDFFF768BB55
:100F100010B5401EB0F1807F01D3012010BD4FF00D
:100F2000E02460610F21601700F0BAFB0020A0618F
:100F300007202061002010BD7047704770B590F801
:100F40003C20012A32D0012480F83C40022280F863
:100F50003D2003685A689D6822F070060A68324393
:100F60005A60134B02689A4214D0B2F1804F11D0EC
:100F7000104B9A420ED0104B9A420BD00F4B9A4214
:100F800008D00F4B9A4205D00E4B9A4202D00E4B1E
:100F90009A4204D1496825F080031943916080F892
:100FA0003D40002180F83C10084670BD022070BD15
:100FB000000001400004004000080040000C004018
:100FC00000040140004001400018004010B504003A
:100FD00003D094F83D0010B107E0012010BD0020BF
:100FE00084F83C00204600F01FF8022084F83D0001
:100FF000211D206800F022FA012084F8460084F8C0
:101000003E0084F83F0084F8400084F8410084F8F2
:10101000420084F8430084F8440084F8450084F8D2
:101020003D00002010BD000008B500680B49884253
:1010300012D10B48016841F02001016000680022D4
:1010400000F02000009002213720FFF77FFCBDE870
:1010500008403720FFF76CBC08BD000000140040BA
:101060004038024090F83D10012901D0012070471E
:10107000022180F83D100168CA6842F00102CA608E
:1010800000681149884214D0B0F1804F11D00F4947
:1010900088420ED00E4988420BD00E49884208D0B3
:1010A0000D49884205D00D49884202D00C4988423A
:1010B00004D1816801F00701062903D0016841F0DD
:1010C0000101016000207047000001400004004061
:1010D00000080040000C00400004014000400140B6
:1010E0000018004070472DE9F04104460068C668CA
:1010F00005694FF00007A90713D5B10711D5F91EEF
:10110000016101202077206880698007204602D095
:10111000FFF7E8FF04E000F07EF8204600F07CF8DE
:101120002777680716D5700714D521686FF004007B
:101130000861022020772068806910F4407F2046F3
:1011400002D0FFF7CFFF04E000F065F8204600F082
:1011500063F82777280715D5300713D521686FF076
:1011600008000861042020772068C06980072046B5
:1011700002D0FFF7B7FF04E000F04DF8204600F082
:101180004BF82777E80616D5F00614D521686FF0DE
:1011900010000861082020772068C06910F4407FA3
:1011A000204602D0FFF79EFF04E000F034F820460E
:1011B00000F032F82777E80708D0F00706D021685A
:1011C0006FF001000861204600F027F8280608D5D6
:1011D000300606D521686FF0800008612046FFF7D1
:1011E000ABFE680608D5700606D521686FF0400092
:1011F0000861204600F012F8A8060AD5B00608D506
:1012000021686FF0200008612046BDE8F041FFF73B
:1012100094BEBDE8F0817047704770477047FEE7A5
:1012200000B587B01C216846FFF7EBF816484FF071
:101230002041102201601549416006218160002192
:10124000C160C0E904128161C16113020162C0E999
:101250000913C16201634163816341640F20FF236D
:101260000090CDE90103CDE903021120CDE905018C
:10127000002269460448FFF71BFE002801D0FFF753
:1012800026F907B000BD000000010020040100A005
:1012900070B586B014216846FFF7B3F822480024E1
:1012A000016841F020010160016801F02001059111
:1012B000016841F080010160016801F08001059141
:1012C000016841F010010160016801F01001059111
:1012D000016841F008010160016801F00801059111
:1012E000016841F040010160016801F04001059191
:1012F000016841F00101016000680C4E00F001003E
:101300004FF480650590002229463046FFF7ABFA7E
:1013100001200095CDE90104694630460394FFF7AA
:10132000A5F906B070BD000030380240001402403C
:101330001CB500240E4800940C490194016053210F
:10134000C0E9011440F2E7318461C160FFF73EFE5D
:1013500008B1FFF7BCF80094694605480194FFF70F
:10136000EDFD002801D0FFF7B2F81CBD00140040CD
:1013700050010020FEE7FEE770477047FFF77EBA96
:1013800030B593B030216846FFF73BF814210CA824
:10139000FFF737F81D480025016841F080510160D2
:1013A000006800F0805011901948016841F48041B4
:1013B00001600068022400F4804011900120009038
:1013C000000401908001CDE9064008AA0420A8216C
:1013D00082E813000B906846FFF7B4FB08B172B6C1
:1013E000FEE70CA90F2081E831004FF4A0500F90C8
:1013F0004FF48050109005210CA8FFF7D9FA00286F
:1014000001D072B6FEE713B030BD00004038024094
:10141000007000400248016841F4700101607047AB
:1014200088ED00E010B50448FFF75DFEBDE8104010
:10143000012021F08FBC000050010020F0B50268AF
:10144000294C2A4D2A4E2B4F2B4B4FF0804CA0425B
:1014500009D0604507D0A84205D0B04203D0B842B9
:1014600001D0984204D122F0700E4A6842EA0E027E
:10147000A0421BD0604519D0A84217D0B04215D069
:10148000B84213D0984211D01C4DA8420ED01C4D2A
:10149000A8420BD01B4DA84208D01B4DA84205D036
:1014A0001A4DA84202D01A4DA84203D122F4407529
:1014B000CA682A434D6922F080022A4302608A6882
:1014C000C2620A688262A04201D0984201D10969D1
:1014D0000163012141610169C90703D0016921F05C
:1014E00001010161F0BD0000000001400004004066
:1014F00000080040000C0040000401400040014092
:10150000004401400048014000180040001C004019
:1015100000200040FEE7000070B51C4886B00021A6
:10152000026842F001020260026802F001020592C4
:10153000026842F002020260026802F002020592B2
:10154000026842F0200202600068012400F02000DE
:101550000590042003258DE833000D4E6946304682
:10156000FFF784F8E002009069460A48FFF77EF82A
:10157000CDE9005469463046FFF778F82020009006
:1015800069460548FFF772F806B070BD3038024072
:101590000004024000140240000002402DE9F05F08
:1015A0008B468246002201213548FFF75CF900276F
:1015B0003E463D464FEA070400F064F828B36D1C30
:1015C000EDB2902026F000FF26F0D8FE60F3070869
:1015D00026F0D4FE60F30F28D02026F0F5FE26F08A
:1015E000CDFE60F3070926F0C9FE60F30F291FFA4C
:1015F00089F040BA17FA80F71FFA88F040BA16FA55
:1016000080F6641CE4B2102CD6D3012211461C488B
:10161000FFF729F9102D02D20020BDE8F09F38090C
:10162000310940F2A46347F61812984201D21846D5
:1016300002E0904200D9104640F2145247F2305373
:10164000914201D2114602E0994200D91946A0F216
:10165000A460C0EB0010000147F27422B0FBF2F06E
:10166000AAF80000A1F2145101EB8100800147F2B9
:101670001C01B0FBF1F0ABF800000120CDE7000049
:101680000004024010B54FF400610448FFF7E6F88B
:1016900008B1002010BD012010BD00000014024060
:1016A0000907090E002804DB00F1E02080F800148F
:1016B000704700F00F0000F1E02080F8141D704723
:1016C00070B5044600256FF02F0608E02068411C25
:1016D0002160007805EB850106EB41014518206883
:1016E000007800F02CF80028F0D1284670BD70B5C5
:1016F00014460D461BB9114611F034FA034603FB9C
:1017000005F0142C0ED0E11F03290AD8072C0DD0A8
:10171000082C0DD0092C0DD00A2C0DD0002100EB87
:10172000810070BD590801FB050070BD0221F6E77C
:101730000421F4E71021F2E74FF48071EFE730382D
:10174000092801D801207047002070472DE9FC5F6F
:101750009B460CAB8A468146DDE9116093E8121086
:10176000DDE90F575FEA80784FF030031AD45EB19D
:101770005FEAC07808D000F00C0858EA0C0803D0E3
:10178000761E01E00B55641CBC4204D2202CF9D318
:1017900001E00B55641C5FEAC07803D0B44201D26B
:1017A000202CF6D35FEAC06825D55FEA40580AD4FA
:1017B0004CB1BC4201D0B44205D1641E03D0102DFF
:1017C00003D1641E04E0102D02D0022D0AD00EE0D9
:1017D000850603D4202C1ED2782506E0202C1AD2B0
:1017E000582502E0202C16D262250D55641C202CB1
:1017F00011D20B55641C202C0DD2BCF1000F01D06E
:101800002D2306E0430701D52B2302E0030702D571
:1018100020230B55641CCDE900BAC8461546814605
:101820008B46AA46800714D1274607E02A46DDE901
:1018300000316D1C2020C446E0477F1CB742F5D321
:1018400007E02A466D1C641EDDE900311BF8040028
:10185000C047002CF5D15FEA897006D409E02A461A
:10186000DDE900316D1C2020C047A5EB0A00B04225
:10187000F5D32846BDE8FC9F2DE9F04F8FB099467F
:101880008B46DDE91818DDE91C63DDE91A4792464D
:101890008646002209B923F01003580507AD00D58C
:1018A000C9B1B1FBF4F004FB1010C0B20A2801D298
:1018B000303009E05FEA836C02D54FF0410C01E063
:1018C0004FF0610C60440A38B1FBF4F1A854521C8B
:1018D00009B1202AE5D3CDF80880CDE90563CDE92B
:1018E0000052CDE903474B46524659467046FFF732
:1018F0002DFF0FB0BDE8F08F2DE9FF4F8FB01CAC6E
:10190000DDE9239594E8030820AC94E8C0040024A2
:1019100050EA010201D125F010056A050DF11C08FD
:1019200002D550EA010217D032463B46FEF79CFC36
:10193000D2B20A2A01D2303206E0AB0601D54123E9
:1019400000E061231A440A3A08F80420641C50EAB3
:10195000010201D0202CE7D3CDE90084CDF808B0F6
:10196000CDE90595CDE9036A0FAF97E80F00FFF7C2
:10197000EDFE13B0BDE8F08F9A4200D28854704754
:10198000704770B50D46040011D08DB100F0BFFE58
:1019900000280BD0616800690EF030FF0646E16B4D
:1019A00028468847E1680844E060304670BDFEE79D
:1019B000FEE72DE9FF4114460E4605460A461F463E
:1019C00021466846DDF828800DF048FC00281AD032
:1019D000019861682268411A009808FB0151821A37
:1019E000551831683844441A68460DF025FC00212A
:1019F00007E0625C6B5C1A44FF2A00D9FF22625444
:101A0000491C8142F5D3BDE8FF8110B502004FF0BB
:101A100000000CD04B1E194200D0FEE70A44521EB3
:101A20009A43B2F5803F02D20C2A01D9104610BD6C
:101A30000C2010BD2DE9F04F064691B0D6E901709B
:101A4000804696F821B03568F0680F90D6E90640D8
:101A50000E90D6E904A009900AA80FF02AFF96F884
:101A6000220008B10020C9E0BAF1000F05D0BBF197
:101A7000FD0F4FF0000066D28DE0BBF1FD0F4FF07F
:101A8000000017D21CE000260CE000BF04EB46006B
:101A900005EB46010088ADF804000AAA01980FF092
:101AA0006FFC761CBE42F1DB0F9805440E9804448F
:101AB00009F1010081464045E5DB11B0BDE8F08F3A
:101AC00081464045F9DA002613E000BF04EB4600EA
:101AD0000088ADF804009DF8051011FB0BF0000A1A
:101AE0008DF8050005EB46010AAA01980FF048FCA5
:101AF000761CBE42EADB0F9805440E98044409F1B7
:101B00000100DDE7002614E004EB46000088ADF894
:101B100008009DF809101AF8060011FB00F0000AF1
:101B20008DF8090005EB46010AAA02980FF028FC7F
:101B3000761CBE42E8DB0F98099905440E988A444A
:101B4000044409F1010081464045DBDBB5E700268E
:101B500017E000BF04EB46000088ADF808009DF8D0
:101B600009101AF8060011FB00F101FB0BF1080C3B
:101B70008DF8090005EB46010AAA02980FF000FC57
:101B8000761CBE42E6DB0F98099905440E988A44FC
:101B9000044409F1010081464045D8DB8DE700206F
:101BA0001EE000BF04EB4900BAF1000F0088ADF859
:101BB000080027D09DF809201AF8090012FB00F14F
:101BC00001FB0BF15FEA11408DF8090096F8222025
:101BD00005EB49000AAB029901F086FD09F101000D
:101BE0008146B842DEDBBAF1000F01D009998A4480
:101BF0000F9805440E9804440398401C03904045F8
:101C0000CDDB5AE79DF8091011FB0BF0000ADBE76A
:101C10002DE9F04F064695B0D6E90170804696F85A
:101C200021B03568F0680E90D6E906400C90D6E9F0
:101C300004900A9096F8220020B110A80FF04DFEF3
:101C40000020D0E0B9F1000F05D0BBF1FD0F4FF03F
:101C5000000064D289E0BBF1FD0F4FF0000019D203
:101C60001EE000BF4FF000094E460BE004EB4600BB
:101C700005EB8901427814F816000FF0D2FC09F147
:101C80000109761CBE42F1DB0E9805440C98044411
:101C90000AF1010082464045E4DB15B0BDE8F08F53
:101CA00082464045F9DA4FF000094E460FE000BF8A
:101CB00004EB4600417811FB0BF0020A05EB8901A9
:101CC00014F816000FF0ADFC09F10109761CBE42B4
:101CD000EEDB0E9805440C9804440AF10100DFE79E
:101CE0004FF0000A564610E004EB4600417819F820
:101CF000060011FB00F0020A05EB8A0114F8160039
:101D00000FF08FFC0AF1010A761CBE42ECDB0E9844
:101D10000A9905440C98894404440BF10100834658
:101D20004045DDDBB9E700BF4FF0000A564612E040
:101D300004EB4600417819F8060011FB00F000FBA7
:101D40000BF0020C05EB8A0114F816000FF069FC89
:101D50000AF1010A761CBE42EADB0E980A99054494
:101D60000C98894404440598401C05904045DBDBF1
:101D700093E70020039028E014F81A100298B9F1B4
:101D8000000F61F3174061F30F2061F3070004EBCC
:101D90004A012CD0039A4B7819F8021013FB01F179
:101DA00001FB0BF15FEA114161F31F6002900398A0
:101DB00096F8222005EB800010AB029901F0BAFCE6
:101DC0000398401C03900AF101008246B842D3DB1D
:101DD000B9F1000F01D00A9881440E9805440C987F
:101DE00004440598401C05904045C2DB55E74A78FD
:101DF00012FB0BF1090AD7E72DE9F04F054687B032
:101E0000D5E9016790F821B000680090E868029079
:101E1000D5E906400390D5E904900490686AC1179B
:101E200000EB517121F00701A0EB010A95F82200A7
:101E300008B1002029E1B9F1000F05D0BBF1FD0F79
:101E40004FF0000070D2E2E0BBF1FD0F4FF0000058
:101E50002ED233E04FF0000845461FE008EB0A01A0
:101E60008B46009807F047FAC0EB00208DF804007D
:101E700004EB450001A9427814F815000FF0EEFBC1
:101E80009DF8040059467F28009802D926F008F9E9
:101E900001E002F063FE08F101086D1CB542DDDBD4
:101EA00002990098084400900398044409F1010045
:101EB0008146B842CEDB07B0BDE8F08F8146B8421C
:101EC000F9DA4FF00008454623E000BF08EB0A01AD
:101ED0000191009807F00FFAC0EB00208DF8100078
:101EE00004EB4500417811FB0BF0020A14F81500D1
:101EF00004A90FF0B3FB9DF810007F28DDE9000175
:101F000002D926F0CDF801E002F028FE08F1010820
:101F10006D1CB542DADB00990298084400900398E2
:101F2000044409F10100C9E735E000BF4FF00008A3
:101F3000454624E008EB0A010191009807F0DBF91F
:101F4000C0EB00208DF8140004EB4500417819F82F
:101F5000050011FB00F0020A14F8150005A90FF0A6
:101F60007DFB9DF814007F28DDE9000102D926F0F1
:101F700097F801E002F0F2FD08F101086D1CB5428E
:101F8000D8DB02990098084400900398049904440F
:101F900089440BF101008346B842C7DB8BE700BFE1
:101FA0004FF00008454626E008EB0A010191009831
:101FB00007F0A1F9C0EB00208DF8140004EB4500F8
:101FC000417819F8050011FB00F101FB0BF10A0C37
:101FD00014F8150005A90FF041FB9DF814007F28A7
:101FE000DDE9000102D926F05BF801E002F0B6FD60
:101FF00008F101086D1CB542D6DB0299009808442F
:10200000009003980499044406988944401C069063
:10201000B842C5DB4FE70020059026E014F8181001
:102020000198B9F1000F61F3174061F30F2061F3DC
:10203000070004EB48012CD04B7819F8081013FB6B
:1020400001F101FB0BF1090C61F31F600190059890
:1020500095F8223000EB0A01DDE9000201F0BDFB3A
:102060000598401C059008F101008046B042D5DB80
:10207000B9F1000F01D004998944009902980844ED
:102080000090039804440698401C0690B842C2DBB6
:1020900011E74A7812FB0BF1090AD5E72DE9F04F59
:1020A000064691B0D6E90170804696F821B03568B1
:1020B000F0680F90D6E906400D90D6E904900B9099
:1020C00096F8220008B10020C7E0B9F1000F05D052
:1020D000BBF1FD0F4FF0000063D288E0BBF1FD0FB4
:1020E0004FF0000018D21DE04FF000094E460BE003
:1020F00004EB460005EB0901427814F816000FF0D6
:10210000BBFA09F10109761CBE42F1DB0F980544C8
:102110000D9804440AF1010082464045E4DB11B009
:10212000BDE8F08F82464045F9DA4FF000094E468F
:102130000FE000BF04EB4600417811FB0BF0020AF0
:1021400005EB090114F816000FF096FA09F10109E0
:10215000761CBE42EEDB0F9805440D9804440AF14C
:102160000100DFE74FF0000A564610E004EB46009E
:10217000417819F8060011FB00F0020A05EB0A018C
:1021800014F816000FF078FA0AF1010A761CBE4224
:10219000ECDB0F980B9905440D98894404440BF12E
:1021A000010083464045DDDBB9E700BF4FF0000A80
:1021B000564612E004EB4600417819F8060011FB80
:1021C00000F101FB0BF10A0C05EB0A0114F81600F3
:1021D0000FF052FA0AF1010A761CBE42EADB0F98B0
:1021E0000B9905440D98894404440498401C0490BC
:1021F0004045DBDB93E70020039020E014F81A1041
:102200000098B9F1000F61F3174061F30F2061F3FB
:10221000070026D0039A19F8022012FB0BF1090AD5
:1022200061F31F600090039896F8222028440099DB
:1022300001F00CFB0398401C03900AF10100824658
:10224000B842DBDBB9F1000F01D00B9881440F9845
:1022500005440D9804440498401C04904045CADB92
:102260005DE76BF31F60DDE72DE9F04F804687B037
:10227000D8E90170814698F821B0D8F80040D8F824
:102280000C000290D8E906500190D8E904A0039010
:1022900098F8220008B1002032E1BAF1000F05D011
:1022A000BBF1FD0F4FF0000067D28CE0BBF1FD0FDA
:1022B0004FF000001AD21FE00026B0460EE000BF2B
:1022C00005EB480034F81610427815F818000FF0A6
:1022D0005DF924F8160008F10108761CBE42EFDB18
:1022E00002980444019805440AF1010082464845D9
:1022F000E2DB07B0BDE8F08F82464845F9DA0026F8
:10230000B04610E005EB4800417811FB0BF0020AE3
:1023100034F8161015F818000FF038F924F81600E4
:1023200008F10108761CBE42ECDB029804440198D7
:1023300005440AF10100DFE70026B04613E000BFC4
:1023400005EB480041781AF8060011FB00F0020A7C
:1023500034F8161015F818000FF018F924F81600C4
:1023600008F10108761CBE42EADB02980399044496
:1023700001988A4405440BF1010083464845DBDBA4
:10238000B7E70026B04614E005EB48001AF806103F
:10239000407810FB01F101FB0BF10A0C34F8161028
:1023A00015F818000FF0F2F824F8160008F10108EB
:1023B000761CBE42E8DB02980399044401988A44E3
:1023C00005440098401C00904845DADB91E7002660
:1023D00030460096049485E015F8101098F82220F5
:1023E000C8088908012A1DD0022A4AD0032A80D1B0
:1023F000049A32F81620D30A13FB00F34FEA531C59
:102400004FF6FF7303EACC23C2F3451C1CFB01F11A
:10241000890903EB411102F01F0212FB00F001EBEE
:1024200050101BE0049A32F8162000EBD2231F2B29
:1024300000D31F234FF6FF7C0CEAC323C2F3451CD5
:1024400061443F2900D33F2102F01F0203EB4111F9
:10245000104489B21F2800D31F20084480B2BAF16B
:10246000000F2BD01AF80620BBF1FD0F30D20099D7
:1024700005EB4101497812FB01F101FB0BF10A0C5C
:1024800026E0049A32F81620C0EBD223002B00DCA1
:1024900000234FF6FF7C0CEAC323C2F3451CACEBD0
:1024A0000101002900DC002102F01F0203EB4111B1
:1024B000101A89B20028D0DC0020CEE70099BBF1C9
:1024C000FD0F05EB41014A7802D212FB0BF10A0A1B
:1024D00034F816100EF036FF24F816000098001D90
:1024E000761C0090BE42FFF677AF0298BAF1000F5B
:1024F00004440198054401D003998A440598401C7E
:1025000005904845FFF663AFF3E600002DE9F34F71
:10251000064685B0D6E90170804696F821B0356848
:10252000F0680190D6E906400090D6E90490039047
:1025300096F8220008B10020CAE0B9F1000F05D0DA
:10254000BBF1FD0F4FF0000063D288E0BBF1FD0F3F
:102550004FF0000018D21DE04FF000094E460BE08E
:1025600004EB460005EB0901427814F816000FF061
:102570003DF80698761C8144BE42F1DB0198054483
:10258000009804440AF1010082464045E4DB07B0AC
:10259000BDE8F08F82464045F9DA4FF000094E461B
:1025A0000FE000BF04EB4600417811FB0BF0020A7C
:1025B00005EB090114F816000FF018F80698761CC0
:1025C0008144BE42EEDB01980544009804440AF1C0
:1025D0000100DFE74FF0000A564610E004EB46002A
:1025E000417819F8060011FB00F0020A05EB0A0118
:1025F00014F816000EF0FAFF0698761C8244BE42CC
:10260000ECDB0198039905440098894404440BF1DC
:10261000010083464045DDDBB9E700BF4FF0000A0B
:10262000564612E004EB4600417819F8060011FB0B
:1026300000F000FB0BF0020C05EB0A0114F8160089
:102640000EF0D4FF0699761C8A44BE42EADB01985C
:10265000039905440098894404440298401C029060
:102660004045DBDB93E70020029023E014F81A00DA
:10267000B9F1000F60F3070160F30F2160F3174118
:1026800004EB4A0029D04378029819F8000013FBA4
:1026900000F000FB0BF0000C60F31F61029896F84D
:1026A0002220284401F0F8F8069902980844029084
:1026B0000AF101008246B842D8DBB9F1000F01D01F
:1026C0000399894401980544009804440498401CE7
:1026D000014604904045C6DB59E7427812FB0BF0F7
:1026E000000AD9E708444A1E401E9043114200D018
:1026F000FEE7704710B5402018F082FD040005D0B9
:102700004022002118F0ADFE204610BDFEE72DE965
:10271000FC410D4604002AD055B304F12400804644
:102720001DF061FC009008B30769616838460EF03F
:1027300065F8064629463846626818F0D7FD04F168
:10274000300018F082FC019098B10422694618F01C
:10275000CDFD2046009907F0CBF9042201A918F01D
:10276000C5FD2146304662680EF058F807E0FEE7E6
:10277000FEE7404600991DF000FC00200090009804
:10278000BDE8FC812DE9F0410F46012100250446FA
:102790002E46C16309E01A491EF066FC08B16D1CA3
:1027A00002E0E06B401CE063761C57F8260010B195
:1027B00001780029EFD1A06BA8421FD0206B002622
:1027C00010B115F09FFA2663606B10B115F09AFAFC
:1027D0006663280118F014FD206338B1680018F012
:1027E0000FFD606318B1216B11B102E0FEE7FEE757
:1027F00000256A00002118F034FEA563BDE8F081D1
:102800004803010810B5044690F85400E26BC10774
:10281000616C04D121B14B1C18D0491E6164A9B967
:102820000AB1C10712D02146144818F0B3FC00F0D9
:1028300027F8216909B120468847616909B1204616
:1028400088472046BDE8104015F05CBA216C49422B
:102850006163002A10D0C10702D1A16B49426163B4
:10286000411C61F3000084F85400E16A606A61620F
:10287000E062206B2263E06310BD00004402002090
:1028800010B50A4C012084F8A40004F1AC0018F043
:10289000B7FB0028D4F8A80003D0BDE8104020F012
:1028A000BBBBBDE8104020F0A5BB00009801002094
:1028B0002DE9F0413D4D95F8A50038B15FF00000DD
:1028C00085F8A5003948AC30074664E00120F7E7F9
:1028D000206D20F029FA616B0844606320F02AFA29
:1028E0002065002085F8A40094F8540095F8A51000
:1028F000C0F340028A4254D061F3410084F854008E
:1029000041071ED4616B002941DB000709D4A1698E
:1029100039B120468847616A01446162E16A08442E
:10292000E062204622F0D6FBE16809B120468847E4
:1029300094F8540040F0040084F85400204622F03B
:10294000E9FA606B002822DB216B884200DD6163BD
:10295000216A20468847A16A0646B1420DD0A66288
:10296000626812B131462068904795F8A40088B992
:10297000A2682AB131462046904795F8A40048B98C
:10298000D4E90C0181420CDB2046FFF73BFF95F8B0
:10299000A40030B1384618F033FB040098D1BDE8EC
:1029A000F0812146384618F03DFBF6E798010020FB
:1029B00070B5044640680D4608B1FFF7F9FF22687C
:1029C000002A04D029462046BDE87040104770BD5B
:1029D00070B50D6806460C46286838B1296AC902E8
:1029E00004D5206021463046FFF7F2FF21463046ED
:1029F0002560BDE87040FFF7DBBF0CF0FAB90CF0C2
:102A000030BA00002DE9F04F064691B0D6E90170CA
:102A1000814696F8210008903568F0680F90D6E955
:102A200006400E90D6E904B00A900BA80EF041FFC4
:102A300096F8220008B10020DFE00898BBF1000FF3
:102A400004D0FD284FF0000076D29FE0FD284FF023
:102A5000000021D226E000BF4FF0000814E000BFC4
:102A600004EB880BDBF800000EF058FC60F307065F
:102A70009BF80310304661F30F2005EB48010BAAC9
:102A80000EF07EFC08F10108B845E9DB0F9805441B
:102A90000E9804440AF1010082464845DCDB11B07F
:102AA000BDE8F08F82464845F9DA002617E000BFFE
:102AB00004EB860BDBF800000EF030FC60F3070837
:102AC0009BF80310089811FB00F0010A404661F3DF
:102AD0000F2005EB46010BAA0EF052FC761CBE42FD
:102AE000E6DB0F9805440E9804440AF10100D9E78B
:102AF000002617E004EB8601079108680EF00EFC33
:102B0000079960F307084046CA781BF8061012FBC5
:102B100001F1090A61F30F2005EB46010BAA0EF043
:102B20002FFC761CBE42E5DB0F980A9905440E98EF
:102B30008B4404440AF1010082464845D8DBAEE7E5
:102B4000002619E004EB8600079000680EF0E6FB13
:102B500060F307080798C1781BF8060011FB00F026
:102B600008990BAA4843010C404661F30F2005EB7E
:102B700046010EF005FC761CBE42E3DB0F980A9975
:102B800005440E988B4404440AF1010082464845EE
:102B9000D6DB84E7002022E004EB8A000290006884
:102BA0000EF0BCFB414660F307010298BBF1000F39
:102BB000C07860F30F2124D01BF80A2010FB02F02C
:102BC000089A50435FEA104060F30F2196F82220E4
:102BD00005EB4A000BAB00F087FD0AF101008246CD
:102BE000B842D9DBBBF1000F01D00A998B440F9892
:102BF00005440E9804440398401C03904845C9DBE3
:102C00004DE7089A10FB02F0000ADDE72DE9F04FCE
:102C1000064693B0D6E90170804696F821B0356833
:102C2000F0681190D6E906401090D6E904A00B9008
:102C30000CA80EF052FE96F8220008B10020C4E065
:102C4000BAF1000F05D0BBF1FD0F4FF0000066D2C6
:102C50008DE0BBF1FD0F4FF0000018D21DE0002603
:102C60000DE000BF05EB860A04EB8600DAF80010E1
:102C700000680CAA0EF043FCCAF80000761CBE42A5
:102C8000F0DB119805441098044409F101008146D5
:102C90004045E4DB13B0BDE8F08F81464045F9DAEA
:102CA000002612E004EB86000068020E12FB0BF116
:102CB000090A05EB860A61F31F60DAF800100CAA16
:102CC0000EF01DFCCAF80000761CBE42EADB11982B
:102CD00005441098044409F10100DEE7002614E0E1
:102CE00004EB86001AF806100068020E12FB01F1D0
:102CF000090A05EB860B61F31F60DBF800100CAAD4
:102D00000EF0FDFBCBF80000761CBE42E8DB11980C
:102D10000B99054410988A44044409F10100814646
:102D20004045DBDBB6E7002617E000BF04EB86007A
:102D30001AF806100068020E12FB01F101FB0BF1FC
:102D4000090C61F31F6005EB8601079109680CAA65
:102D50000EF0D5FB0799761C0860BE42E6DB1198A1
:102D60000B99054410988A44044409F101008146F6
:102D70004045D8DB8EE7002019E000BF04EB890056
:102D8000BAF1000F016824D01AF809000B0E13FBEA
:102D900000F202FB0BF2100C60F31F6196F8222088
:102DA00005EB89000CAB00F0C5FC09F10100814680
:102DB000B842E3DBBAF1000F01D00B998A441198B5
:102DC0000544109804440398401C03904045D2DB0E
:102DD00060E70A0E12FB0BF0000ADDE72DE9F04F69
:102DE000054689B0D5E9016790F821B000680090E8
:102DF000E8680290D5E906400390D5E90490049074
:102E0000686AC11700EB517121F00701A0EB010ABC
:102E100095F8220008B100201BE1B9F1000F05D0A0
:102E2000BBF1FD0F4FF0000071D2E3E0BBF1FD0FED
:102E30004FF000002FD234E0002522E004EB850B98
:102E4000DBF800000EF06AFA05EB0A0104908946EF
:102E5000009806F050FAC0EB00208DF804009BF8B3
:102E6000032001A904980EF0F9FB9DF804004946DF
:102E70007F28009802D925F013F901E001F06EFED9
:102E80006D1CB542DADB0099029808440090039863
:102E9000044408F101008046B842CDDB09B0BDE82A
:102EA000F08F8046B842F9DA002525E004EB850072
:102EB000059000680EF032FA05EB0A01049089468D
:102EC000009806F018FAC0EB00208DF80400059871
:102ED000C17811FB0BF0020A01A904980EF0BEFBA9
:102EE0009DF8040049467F28009802D925F0D8F8BB
:102EF00001E001F033FE6D1CB542D7DB029900986A
:102F0000084400900398044408F10100C9E735E043
:102F1000002527E004EB8500069000680EF0FEF91E
:102F200005EB0A0105908B46009806F0E4F9C0EB2A
:102F300000208DF80400069819F80510C07811FBE0
:102F400000F0020A01A905980EF088FB9DF8040024
:102F500059467F28009802D925F0A2F801E001F037
:102F6000FDFD6D1CB542D5DB029900980844009028
:102F7000039804990444894408F101008046B8424A
:102F8000C6DB8BE7002529E004EB8500079000688D
:102F90000EF0C4F905EB0A0101910690009806F0C5
:102FA000AAF9C0EB00208DF81400079819F8051055
:102FB000C07811FB00F000FB0BF0020C05A906988D
:102FC0000EF04CFB9DF814007F28DDE9000102D9CA
:102FD00025F066F801E001F0C1FD6D1CB542D3DBC0
:102FE0000299009808440090039804990444894485
:102FF00008F101008046B842C4DB4FE7002018E02A
:1030000004EB8800B9F1000F026826D019F8080017
:10301000130E13FB00F000FB0BF0000C60F31F62BB
:1030200095F8223008EB0A01009800F0D6FB08F171
:1030300001008046B042E3DBB9F1000F01D00499F2
:103040008944029900980844009003980444019828
:10305000401C0190B842D1DB20E7110E11FB0BF0B0
:10306000000ADBE72DE9F04F06468FB0D6E9017084
:10307000804696F821B03568F0680D90D6E9064094
:103080000C90D6E904A0089096F8220008B1002020
:10309000B6E0BAF1000F05D0BBF1FD0F4FF0000014
:1030A0005DD280E0BBF1FD0F4FF0000016D21BE0B7
:1030B00000260BE004EB860ADAF800000EF02EF989
:1030C0009AF80320A9190EF0D7FA761CBE42F1DB5C
:1030D0000D9805440C98044409F1010081464045CF
:1030E000E6DB0FB0BDE8F08F81464045F9DA0026F7
:1030F0000FE000BF04EB860ADAF800000EF00EF9CC
:103100009AF8032012FB0BF10A0AA9190EF0B4FA7F
:10311000761CBE42EEDB0D9805440C98044409F180
:103120000100E1E7002610E004EB860BDBF800006D
:103130000EF0F4F89BF803201AF8061012FB01F1C8
:103140000A0AA9190EF098FA761CBE42ECDB0D981B
:10315000089905440C988A44044409F10100814609
:103160004045DFDBBDE7002613E000BF04EB86012E
:10317000069108680EF0D2F80699CA781AF8061077
:1031800012FB01F101FB0BF10A0CA9190EF074FA04
:10319000761CBE42EADB0D98089905440C988A44D7
:1031A000044409F1010081464045DCDB99E7002039
:1031B00018E000BF04EB8900BAF1000F016823D0CA
:1031C0001AF809000B0E13FB00F000FB0BF0000CCB
:1031D00060F31F6196F8222005EB090000F036FB32
:1031E00009F101008146B842E4DBBAF1000F01D0D9
:1031F00008998A440D9805440C9804440298401C90
:1032000002904045D3DB6CE70A0E12FB0BF0000A7C
:10321000DEE700002DE9F04F804687B0D8E9017065
:10322000814698F821B0D8F80040D8F80C000290F8
:10323000D8E906500190D8E904A0039098F822003C
:1032400008B100203AE1BAF1000F05D0BBF1FD0F43
:103250004FF0000061D284E0BBF1FD0F4FF00000A1
:1032600018D21DE00026B0460CE000BF05EB0800B8
:1032700034F81610C2780EF0E3F824F8160008F1BE
:103280000408761CBE42F1DB029804440198054410
:103290000AF1010082464845E4DB07B0BDE8F08F43
:1032A00082464845F9DA0026B0460EE005EB0800F4
:1032B000C27812FB0BF10A0A34F816100EF0C0F8AF
:1032C00024F8160008F10408761CBE42EEDB0298D2
:1032D0000444019805440AF10100E1E70026B046E4
:1032E00011E000BF05EB08001AF80610C27812FBC7
:1032F00001F10A0A34F816100EF0A2F824F81600AC
:1033000008F10408761CBE42ECDB029803990444E1
:1033100001988A4405440BF1010083464845DDDBF2
:10332000BBE70026B04612E005EB08001AF80620BD
:10333000C17811FB02F101FB0BF10A0C34F81610F5
:103340000EF07EF824F8160008F10408761CBE4240
:10335000EADB0298044401980544039882440098EB
:10336000401C00904845DCDB97E70026009604945B
:1033700096E000BF98F82200012822D0022857D0FA
:1033800003288AD1049800996A1830F816009178B9
:10339000C30AC90813FB01F149095278C902C0F3F5
:1033A0004513920813FB02F2920901EB421100F05F
:1033B0001F020098285CC00812FB00F001EB5010BF
:1033C00024E0049800996A1830F816009178C30A2E
:1033D00003EBD1011F2900D31F214FF6FF7303EA2E
:1033E000C1215278C0F3451303EB92023F2A00D368
:1033F0003F2201EB421100F01F02009889B2285CC5
:1034000002EBD0001F2800D31F20084480B2BAF17D
:10341000000F32D01AF80620BBF1FD0F36D200990A
:103420002944C97812FB01F101FB0BF10A0C2DE0D4
:103430000498009A2A4430F816009378C10AA1EB48
:10344000D301002900DC00214FF6FF7303EAC123FA
:103450005278C0F34511A1EB9201002900DC002154
:1034600000F01F02009803EB411189B2285CA2EB27
:10347000D0000028C9DC0020C7E70099BBF1FD0F90
:103480002944CA7802D212FB0BF10A0A34F816104A
:103490000DF058FF24F816000098001D761C0090CF
:1034A000BE42FFF667AF0298BAF1000F04440198DC
:1034B000054401D0039882440598401C0590484576
:1034C000FFF653AFE9E600002DE9F34F064685B05D
:1034D000D6E90170804696F821B03568F068019011
:1034E000D6E906400090D6E90490039096F82200B1
:1034F00008B10020BCE0B9F1000F05D0BBF1FD0F11
:103500004FF000005DD280E0BBF1FD0F4FF00000F6
:1035100016D21BE04FF000094E4609E004EB86008E
:1035200005EB0901C2780DF0C4FF0699761C8944A9
:10353000BE42F3DB01980544009804440AF10100FF
:1035400082464045E6DB07B0BDE8F08F8246404545
:10355000F9DA4FF000094E460DE000BF04EB86009B
:10356000C27812FB0BF10A0A05EB09010DF0A1FF6D
:103570000699761C8944BE42F0DB01980544009808
:1035800004440AF10100E1E74FF0000A56460EE05C
:1035900004EB860019F80610C27812FB01F10A0A42
:1035A00005EB0A010DF085FF0699761C8A44BE42A0
:1035B000EEDB0198039905440098894404440BF11B
:1035C000010083464045DFDBBDE700BF4FF0000A46
:1035D000564610E004EB860019F80610C27812FB7C
:1035E00001F101FB0BF10A0C05EB0A010DF061FF83
:1035F0000699761C8A44BE42ECDB01980399054487
:103600000098894404440298401C02904045DDDB48
:1036100099E7002002901DE004EB8A00B9F1000F49
:10362000016829D0029A0B0E19F8020013FB00F072
:1036300000FB0BF05FEA104060F31F61029896F800
:103640002220284400F028F90699029808440290A4
:103650000AF101008246B842DEDBB9F1000F01D069
:103660000399894401980544009804440498401C37
:1036700004904045CDDB66E70A0E12FB0BF0000A12
:10368000DAE7000010B5416C96B0044601B3684615
:103690000AF020FF214668460AF0B3FF0F4968464A
:1036A0000AF099FF6846616C0AF08DFF0122002143
:1036B00068460AF0A0FF0A4968460AF08EFF0949E9
:1036C00068460AF079FF68460AF0BCFF16B010BDE4
:1036D00016B0BDE8104020F055BC000009400208BB
:1036E00099E500080B40020830B415460A46014629
:1036F000D4B2012D08D0022D14D0032D18D10D788D
:1037000015FB04F4240A04E00D782C44FF2C00D3AC
:10371000FF2464F30700120A62F30F2030BC1A463C
:103720000DF02EBE0D782C1B002CF2DC0024F0E7EF
:1037300030BC70472DE9F04117460446C1F30746F7
:10374000C1F30725CAB2012F14D0022F31D0032FA5
:103750002DD1A77817FB06F6360A66F31740667870
:1037600016FB05F52D0A65F30F20257815FB02F2EF
:10377000120A12E0A7783E44FF2E00D3FF2666F31C
:10378000174066783544FF2D00D3FF2565F30F20E1
:1037900025782A44FF2A00D3FF2262F30700090E8E
:1037A00061F31F6021681A460DF0A9FE2060BDE894
:1037B000F081A778BE1B002E00DC002666F31740C0
:1037C0006678751B002D00DC002565F30F20257839
:1037D000AA1A002AE1DC0022DFE72DE9F84380463F
:1037E0001F460E46154610460DF098FD044631461C
:1037F000404605F080FDC0EB0020C0B28DF800000F
:10380000012F15D0022F19D0032F0FD110FB04F078
:10381000C0F307202A0E69460DF020FF9DF8000036
:1038200031467F2840460ED924F03AFCBDE8F883A3
:103830002044FF2800DBFF20C0B2EBE7001B00287C
:10384000FADC0020F8E701F089F9EFE770B50446EB
:1038500016460D4608460DF061FD012E0ED0022ED3
:1038600013D0032E17D1217811FB00F0C0F30720ED
:103870002A0E2146BDE870400DF0FEBE21780844B6
:10388000FF2800DBFF20C0B2F2E72178081A0028E9
:10389000F9DC0020F7E770BD38B500230093CDB206
:1038A000C1F30724C1F30743012A14D0022A2DD003
:1038B000032A2AD1027812FB05F2120A8DF80020A1
:1038C000427812FB04F2120A8DF80120827812FB72
:1038D00003F2120A12E002782A44FF2A00D3FF22E0
:1038E0008DF8002042782244FF2A00D3FF228DF871
:1038F000012082781A44FF2A00D3FF228DF802208B
:103900000A0E014668460DF0D4FD38BD0278521B00
:10391000002A00DC00228DF800204278121B002AC9
:1039200000DC00228DF801208278D21A002AE5DC22
:103930000022E3E710B50446406882080AD04968CF
:1039400021F00301091D08446060204600F042F8A0
:10395000204610BDFEE74068103120F00300884289
:1039600001D301207047002070472DE9FC47054630
:1039700048680C4620F0030001AA69461FF0BFFF0B
:10398000DDE9007005EBC71101EB80098046D9F82D
:103990003C0060B164B1C4E9020504F10806C460EA
:1039A00030460421FEF79EFE864202D0FEE7FEE787
:1039B000FEE7C9F83C400120296900FA07F21143EB
:1039C000296105EB870100FA08F04A6902434A6160
:1039D000BDE8FC8710B5044600F087F8046010BD10
:1039E0002DE9FC4706464FF000000D000090074609
:1039F000019042D00C46E9460DF10408802907D316
:103A0000084627F00DF9411F01208840401E04445C
:103A10004246494620461FF072FF009C0A2C2CDAD1
:103A200006EB8400019A40694FF0FF3101FA02F27F
:103A300010400CD1641C3069A14008401DD027F013
:103A4000E7F80446009006EB8000406978B127F063
:103A5000DFF8034606EBC411019001EB8000C76B51
:103A60005FB1786820F00300A84201D2FEE7FEE7CC
:103A700039463046009A21F089FA3846BDE8FC877D
:103A800010B50446FFF7A6FF416841F0020141600E
:103A9000606840F00100606010BD10B5044600F0A1
:103AA00024F8416821F002014160606820F00100C3
:103AB000606010BD70B506460D46084600F015F86A
:103AC000040010D02079C0070BD0686880080BD0A4
:103AD0002146304600F03CF821462846FFF72AFFF1
:103AE0000546284670BDFEE7FEE7426800F1080182
:103AF00022F00300001F0844910800D1FEE7704740
:103B000070B506460C004FF000001ED0F2B12079CF
:103B10001546C0071BD011462046FFF71CFF78B1A1
:103B20002946204600F025F805462046FFF752FFBB
:103B30006868294640F0020068603046FFF715FFCC
:103B40002046FFF7AAFF04F1080070BDFEE7FEE77C
:103B50007CB5054648680C4620F0030001AA69467A
:103B60001FF0CDFEDDE900232146284621F00EFAA4
:103B70007CBD2DE9F0410D46044600F10801281FE7
:103B80000E18606806F1080720F00300401BA0F142
:103B9000040838460421FEF7A5FD874200D0FEE761
:103BA000606820F0030108EB0500001D814200D091
:103BB000FEE7307900F0030040EA0800706020F072
:103BC00003000C2800D2FEE7207900F00300284310
:103BD00060603046FFF754FF3046BDE8F08138B5ED
:103BE000044615F0CFF9054615F0B7FB002820462E
:103BF00005D0616C21641AF004FB012038BD13F07C
:103C0000D7FB002820461ED013F082FAD4E9100119
:103C100081420CD06064206C00906A4620212046CE
:103C20001BF09FFB0128E9D120461AF0EAFA28464A
:103C300015F0A2FB0428E0D1204618F0EAFE00218E
:103C400014F046FCD9E713F011FCD6E7002802D0A7
:103C5000C01C20F00300704714F054B8C01C17F0CB
:103C6000CFBA2DE9F0410446006815461346476A6D
:103C70000E4600222046B84701280FD10020BDE89B
:103C8000F0812946204600F013F80028F7D020687C
:103C90002B460022476A31462046B8470228F0D01A
:103CA00020682A46314603692046BDE8F04118479E
:103CB00070B5044600680E46026A2046904705002B
:103CC00010D0206832462946436920469847284646
:103CD0000CF08FFDA2693146904728460CF080FD1C
:103CE000012070BD002070BD2DE9F04F0C4685B05D
:103CF0000546002118F0B1FD58B32146284600F0D2
:103D00008DFA2146284600F069F80021284619F06E
:103D1000A0FC83460021284619F0ECFC0490002109
:103D2000284619F070FB01281BD0002700212846E7
:103D300019F070FE80460021284619F0E5FB6FF06F
:103D400040490646C8450ED1688D00050BD40120B8
:103D50000AE005B02046BDE8F04F2022002117F010
:103D600080BB0127E2E700208046284618F013FEBA
:103D7000824628460021822219F0E9FCC2B223695A
:103D8000A1682068CDE90031CDE902075B464146D4
:103D9000504606F003FAA0614E4504D1688D4005F7
:103DA00001D4012600E00026284618F0E3FD07466E
:103DB00028460021832219F0CAFCC2B2606900259E
:103DC0006368E1688DE82B0031463846049B06F0B5
:103DD000E5F9E06105B0BDE8F08F00002DE9F34F93
:103DE00081B00C46019805F064FC06004FF0000815
:103DF0001ED1019818F062FE05F05BFC070074D03C
:103E0000019805F05AFC8146019805F05AFC80465D
:103E10008500281D17F0F4F906462A4607EB8901AC
:103E200017F064FA6FF0604146F828104FF001086F
:103E3000019818F0B0FD8346304600F02DFF206158
:103E4000800017F0DDF920602069800017F0D8F9B4
:103E50000025DFF82CA1A06038E056F82510DFF827
:103E60002491514531D100271FE03946019818F0BF
:103E7000F4FC4549009019F0A1FEA8B9009805F09E
:103E800020FC012810D1009805F017FCA8420BD1A6
:103E9000009819F046FE4946484501DA084602E016
:103EA000009819F03EFE81467F1C019818F014FD21
:103EB000B842DAD8B9F1000F03DBA16841F82590C8
:103EC00003E0A168002041F825006D1C2069A8428C
:103ED000C3D8DFF8AC90002509F10109C9F100034E
:103EE00052462F4628469A4614E046E056F82010DF
:103EF000494503DB6B1803EB0A050AE0914204D144
:103F0000A16851F820100F4403E0A3680F4443F860
:103F10002010401C21698142E8D80021019819F045
:103F200098FB2169C1F1010200FB02B0C01B00D562
:103F30000020002114E000BF56F821204A450EDB86
:103F400002EB0A0300FB03F205EBD57702EB6702F5
:103F500092FBF5F2A768ED1A801A47F82120491C58
:103F600022698A4201D9002DE6D1B8F1000F04D0B0
:103F70003046BDE8FE4F13F0C5BEBDE8FE8F000021
:103F80009AFFFF1F010000E0010006002DE9FC5F21
:103F9000054618F0E3FE8346A86808B10021C16118
:103FA0000021284619F093FC01900021284619F0C1
:103FB00001FC8246284619F0E1F9014601982E4C91
:103FC000014401EB0A07284618F086FC80460026CB
:103FD00039E0A868DFF8A0902849006850F826006A
:103FE000009019F0EBFD68BB00981AF06BF9E0BB8C
:103FF0000021009819F0E6F9B8B3012836D002285C
:1040000034D0032832D00021009819F00FFD60B998
:10401000009814300BF001F9019900EB010900211F
:10402000009819F0A7FA484481460021009819F039
:1040300086FA4844A04205DB0021009819F07FFA77
:1040400000EB0904761C4645C3D3A86810B1CBF138
:104050000001C1616FF06040C44203D004EB0A006C
:10406000B84200DA3846BDE8FC9FFFE70098A9692E
:10407000006A401A401CD7E7010000E0010004007C
:104080002DE9FE4F054618F063FE0290A86808B1BE
:10409000002181610021284619F0EAFB00900021EF
:1040A000284619F0B6FB8346284619F075F900EB4F
:1040B0000B010098DFF85C9101EB00084C462846A4
:1040C00018F00AFC07460021284619F08AF9012851
:1040D0004FF0000645D082E0A868CA464E49006805
:1040E00050F82600019019F069FDC8BB01981AF03C
:1040F000E9F820B10198E9694069081A14E0002143
:10410000019819F05FF958B1032809D0062807D0A3
:10411000082805D00021019819F085FC30B112E083
:104120000199E8694969401A401C0BE00198143074
:104130000BF082F8009900EB010A0021019819F0B8
:1041400007FA504482460021019819F001FA5044C0
:10415000A04205DB0021019819F0FAF900EB0A04EE
:10416000761CBE42B8D34C453FD05C443DE0A868C5
:10417000CA462949006850F82600019019F01EFD32
:1041800060BB01981AF09EF8E0BB0021019819F07D
:1041900019F9B8B3012836D0042834D0072832D012
:1041A0000021019819F042FC58B9019814300BF025
:1041B00043F800EB0B0A0021019819F0D2F95044A2
:1041C00082460021019819F0CCF95044A04205DB49
:1041D0000021019819F0C5F900EB0A04761CBE42D3
:1041E000C5D34C4501D000980444A86810B1029989
:1041F000494281614C45404602D0444500DD20469D
:10420000BDE8FE8FFFE701986969C069401A401C4C
:10421000D6E70000010000E0010004002DE9F34FA3
:1042200081B00C46019805F0FCFD06004FF0000837
:104230001ED1019818F042FC05F0F3FD070072D082
:10424000019805F066FE8146019805F066FE8046FD
:104250008500281D16F0D4FF06462A4607EB890183
:1042600017F044F86FF0604146F828104FF001084D
:10427000304600F011FD6061800016F0C1FF606003
:104280006069800016F0BCFF0025DFF838A1E0600F
:104290003AE056F82500DFF83091504533D1002739
:1042A000DFF828B11FE03946019818F0D6FA5946D0
:1042B000009019F083FCA8B9009805F02EFE0128A3
:1042C00010D1009805F025FEA8420BD1009818F0F7
:1042D000A5FB4946484501DA084602E0009818F077
:1042E0009DFB81467F1C019818F0F6FAB842DAD897
:1042F000B9F1000F03DBE16841F8259003E0E168C4
:10430000002041F825006D1C6069A842C1D8DFF883
:10431000B490002509F10109C9F1000352462F4666
:1043200028469A4614E04AE056F82010494503DB37
:104330006B1803EB0A050AE0914204D1E16851F8D9
:1043400020100F4403E0E3680F4443F82010401CA2
:1043500061698142E8D80021019819F0CBF98346C0
:10436000019818F007FB01466069C0F101020BFBE0
:104370000210C01B00D50020002113E056F82120B8
:104380004A450EDB02EB0A0300FB03F205EBD5778F
:1043900002EB670292FBF5F2E768ED1A801A47F824
:1043A0002120491C62698A4201D9002DE6D1B8F169
:1043B000000F04D03046BDE8FE4F13F0A3BCBDE8AB
:1043C000FE8F00009AFFFF1F010000E001000600C1
:1043D00070B5044600216E2219F0B9F9D8B920460B
:1043E00000216C2219F0B3F94FF48075A84212D164
:1043F000204600216D2219F0AAF9A8420BD12046CF
:104400000021712219F0A3F928B920460021722257
:1044100019F09DF908B1022070BD204600216022EC
:1044200019F095F9C0B2FF280DD120460021732262
:1044300019F08DF938B920460021672219F087F963
:1044400010F0FF00E8D0012070BD2DE9F0410446D6
:1044500006A81D46174690E84C0002290FD00329F4
:104460000BD1294638461DF0F5FD054630460AF0C9
:10447000E3FE401B216808442060BDE8F081294626
:1044800038461DF0E7FD054630460AF0D5FE00EB44
:10449000D071491005EBD570A1EB6000EAE7000090
:1044A0002DE9FF4F95B0C878269CC0070D4600281F
:1044B00001D0FE4800E0FE48099001D0FD4800E030
:1044C000FD480F9001D1FB4800E0FB48109001D05F
:1044D000FA4800E0FA48039001D0FA4800E0FA48B0
:1044E000069001D1F54800E0F548059001D1F54866
:1044F00000E0F5484FF01409049069E0D4E9011296
:104500004FF0000BA1EB0203584659464FF00C0E3A
:104510000FE000BF01EB4102266909EBC20C16F85F
:104520000CC05FEACC7C08D00EEBC202B2589B1ADA
:10453000491C8F42EED8002144E04FF0100C0CEBE8
:10454000C202B2581044F3E701EB4106276909EBB8
:10455000C60A17F80A20D20733D1E8B34FF0100C7F
:1045600093FBF0F20CEBC60CCDF848C057F80C806A
:104570004FF0080C08FB02F804220CEBC60C02EB0F
:10458000C60257F80CC0BA58CDF820C0C44500DDAB
:10459000C446624503DC089A424500DD4246424576
:1045A00004D04FF0010C47F80AC0E346D4F810C01D
:1045B0000EEBC6064CF806202769129EBE59801BDA
:1045C0009B1A491C62698A42BED8BBF1000F02D017
:1045D0006769002F92D100E028E00021159818F0BB
:1045E0000CFF012823D00021002088460D900E905A
:1045F0000EA90DA8CDE900012878E3686268249926
:104600001FF0E9FBE87810EA080F05D0159818F0BC
:10461000C2F90D9908440D901799159818F01DF9D5
:104620000646DFF8A8926FF0704B3AE1FEE70121F1
:10463000DAE7A749304619F0C1FA00287AD10021FB
:10464000304618F055FFE8B30027384661690FE09F
:10465000226900EB400352F83320B24207D100EB4D
:1046600040020C20216900EBC2000F5802E0401C00
:104670008142EDD8E878C007708D04D020F48060C6
:1046800040F4006003E020F4006040F48060708536
:1046900006F114000F9982468847B84224D030466C
:1046A00019F0AFFD70691190B0691290F069139024
:1046B000306A1490099A39465046904711AA2E2123
:1046C000304600E00CE01AF04CFE304618F0F6F9E7
:1046D000324627211AF045FE304619F092FD03E0DC
:1046E000708D20F4406070856878012823D00228FE
:1046F00004D0059A00213046904727E0109906F132
:10470000140088472168059A491C21F00101081A04
:1047100000EBD0704FEA600A002130469047074610
:10472000049A002130469047381A00EBD0710AEB0A
:1047300061000BE0ADE0109906F114008847216894
:10474000049A0F1A002130469047381A0790E878EB
:1047500010EA080F06D00F9906F1140088470D994A
:10476000081A0D90304600216A2218F0F0FF074623
:10477000304600216B2218F0EAFF8246304619F0DD
:10478000D0F90C90304618F049F90146C7F3417052
:1047900001280DD127F0C040484509DCB0F1805F09
:1047A00001DBABEB00000C9A5043642290FBF2F764
:1047B000CAF3417001280CD12AF0C040484508DCFA
:1047C000B0F1805F01DBABEB00004843642190FB5C
:1047D000F1FA71692298401A0744B1692398411A85
:1047E00001EB0A000190E878C00706D0039A002187
:1047F000304690470D99084400E0079800EB070AFF
:10480000E878C00701D0079805E0039A00213046F8
:1048100090470D990844019947185AEA070019D0A2
:10482000304619F0EEFC716901EB0A007061F16924
:1048300001EB0A00F061B0693844B061306A384475
:104840003062304619F0DDFC00233A4651463046CE
:1048500019F080FDE87810EA080F14D10F9906F1DD
:10486000140088472599039A08440E994718002197
:10487000304690470744069A0021304690470D99EC
:104880003844084404E00E99259808440D99081A04
:104890000D90E87817AAC0F38001159805F0A0F9EB
:1048A0000646002E19D0DDE9170113E015F50008C2
:1048B0000BF5000839F200081BF2000857D5010873
:1048C0007BD5010869D5010845D50108FEFFFF1F0A
:1048D0000100060088427FF4ACAE19B0BDE8F08F4D
:1048E0002DE9F04F91B00E0005463AD0AE61286830
:1048F00008B113F007FA06EB4601062000EB410071
:1049000016F07EFC286018B3022101EB4601014439
:10491000E960042101EB86010144C5E9010101219F
:104920000024012E15D03001103016F08DFCA34666
:10493000B100CDE9051B8246C1F1010700EBC600BD
:10494000891000F108095C46CDF834B0099196E071
:10495000FEE7B4220270E8680480E8684180A86835
:10496000048011B0BDE8F08F4FF00008002F05DC87
:104970000699032000EB4100074408E0DDE905014A
:104980000A1A052101EB4201401E0F4405900698CA
:10499000401C069005A800F0DAF870B1059809AB44
:1049A00082100DA943F8282000F0030041F82800E8
:1049B00008F10108B8F1040FD8DBB8F1040F64D195
:1049C0000C99099888420AD14AF8240049F824B081
:1049D000DDE90D010144DDE90F02104418E00A99F8
:1049E000884218D04AF8240049F824B069680D9824
:1049F00008556968000108550998641C401E4AF86A
:104A0000240049F824B0DDE90E0101441098001D8E
:104A1000084469682CE00B994AF82400884249F858
:104A200024B0DDE90D01084411D0696808556968B2
:104A3000000108550998641C401E4AF8240049F8F2
:104A400024B0DDE90F0108440830696810E00F99CF
:104A50000844696808556968000108550998641C8C
:104A6000401E4AF8240049F824B0109869680C30B8
:104A70000BF1010B0855696800010855641C05A875
:104A800000F065F800287FF46FAF0AEB840140F274
:104A9000D320464351F8041CB012814205D109EBE2
:104AA000840151F8041C814219D0A6EB8021B1F594
:104AB000007F03DC494341F3CF3106E0C1F580615B
:104AC000494341F3CF31C1F10F014AF8240049F8BD
:104AD000240068680155686809010155641CA01E1E
:104AE0000DE000BF59F820204AF824205AF8202071
:104AF00049F8242069680A5C0A55401E641C002895
:104B0000F0DAEB680021084619801AE0EA6822F81A
:104B10001100AB683AF8202023F811200AE0AB68B6
:104B20005AF8202033F81160964200DA324623F812
:104B30001120401C59F820208A4201D1A042EEDB0E
:104B4000491CA042E2DB504613F0DCF809E703C839
:104B5000814201DC0120704700207047CA1701EB39
:104B6000527200EBE20022F00702891AC1F107023B
:104B70000378012191408B430370704701207047F7
:104B80007CB5044612F02FFE0646204612F027FEA2
:104B90000546304617F092FF0446302D23D00B2DEA
:104BA0004DD114F0EFF910B1007A012847D06946D1
:104BB000304617F0E5FF94F8300010F00C0F304647
:104BC0001BD017F0E8FE05460021204618F02DFC0A
:104BD0000128009805EBD5710CD000EB610000BFF7
:104BE00090FBF5F512E0E16A02B00022BDE87040EA
:104BF0001CF0B2BFC0EB6100F2E717F0BBFE0199F9
:104C000000EBD07201EB620191FBF0F5002D00DAB0
:104C10000025E06A0026A84200D0012614F0B2F96F
:104C200008B1012200E00022294620461CF094FF32
:104C3000002E04D00022202120461AF092FB7CBDD9
:104C400030B5002822DA8B1A002B00DC531A6422BC
:104C50005343C0F30901B3FBF1F1C0F30953C0F3AF
:104C60008922C0F3095000EB800003EB830340006E
:104C7000B1EB430F01D20C4600E0044602EB820583
:104C8000B4EB450F03D202EB8200400030BDB1EB24
:104C9000430FFBD2084630BD014600206FF0604252
:104CA00000E0401C51F820309342FAD170471FB504
:104CB000044690F8640000F00100884225D094F882
:104CC000640011B140F0010001E020F0010084F81F
:104CD000640004F1500168460AF02BFAE06A00997A
:104CE0004269114400910199806908440190E06A89
:104CF0000299406908440290E06A03998069084477
:104D000003906946204619F097FA1FBD08B508467A
:104D100011460CF0DAFC0090BDF800009DF802107E
:104D200040EA014008BD00002DE9FC5F088C0C46FC
:104D3000C0F307208F6C0CF0E9FC8146208D636A7C
:104D400081B2CA00B2FBF9F0072202EBC002D6081A
:104D50001A0C01FB02FA02FB00F599B20E23364849
:104D600000960DF0F9FC060007D0206AD6F81080F6
:104D7000000C000704D5386A18E00020BDE8FC9F4D
:104D8000207C012801D080B115E001A80090534695
:104D900042460C21386804F04AFA10B9019951458D
:104DA00009D030460DF019FDE7E7E0685246016989
:104DB000404616F09BFA208CC0F307200E2837D00F
:104DC00008EB0A00A0F1010B08EB0500A0F1010AB5
:104DD000012000FA09F0401E002100F0FF0E0B46F2
:104DE00024E000BF9BF800004A46C84010EA0E00CD
:104DF0000FD080460AE000BFC2F1080C00FA0CFC9C
:104E00004CEA080C4A440CF0FF08D2B2082AF3D34B
:104E100040468AF8000001EB0900C1B2082902D31C
:104E20000021ABF1010BAAF1010A5B1CAB42D9D303
:104E3000FE610120E662A1E7900200202DE9FC4717
:104E40008F6C086A0E46D7F800A0C0F307254FF410
:104E50008079072D0DD0082D0DD0092D0DD00A2DEC
:104E60000DD0002189008846C0F3C04048B1386A9F
:104E700028E00221F6E70421F4E71021F2E7494691
:104E8000F0E7307C012801D0D8B115E0084616F0D3
:104E9000B7F9040009D001A80090434622460C212E
:104EA000504604F0C4F920B900E0FEE701994145FD
:104EB00005D0204612F026FF0020BDE8FC877C606C
:104EC00001E0F06804693463072D09D0082D09D08A
:104ED000092D09D00A2D09D0002070630120ECE7CC
:104EE0000220FAE70420F8E71020F6E74846F4E746
:104EF0002DE9F0430024DDE90759D617072808D02B
:104F0000082810D0092819D00A2821D00020BDE88F
:104F1000F08302EB567405EBE40502F00702012072
:104F2000C2F1070416E002EB9674022005EBA4051B
:104F300002F003020624A4EB42040BE002EBD2745D
:104F4000042005EB640502F00102A0EB820401E0FD
:104F50000820154401228240521E1FFA82FC0026BE
:104F6000C0F1080211E02F7809EB8608E74007EA54
:104F70000C0701EB8707241A3F6864B2C8F8007079
:104F8000002C01DA14466D1C761C9E42EBDB0120DE
:104F9000BDE710B10268D2691047FEE770B505465B
:104FA00012F01DFC0446284612F073FC352C07D184
:104FB000D0F8F802002803D0BDE870401EF02CB8ED
:104FC00070BD00002DE9F04180460F480D46007885
:104FD000A8B16E6810E02C680AE010785178571C70
:104FE00040EA0122B1B2A0B208F0BEFE7A1C641CF5
:104FF000A868A042F1DA761CE868B042EBDA4046D5
:10500000BDE8F0410CF032BEF00000202DE9F04187
:105010000446C0690E4610B10020BDE8F0810122AF
:10502000002130460DF0DAFE05004FF0FF3716D0B4
:1050300030460EF025FB90B10220A86405F138003F
:10504000E561C4E90160204603F0AFFCE16903209B
:1050500088640020E0610DF061FE0120DDE7384644
:10506000DBE7414302EBA121414303EBA121414393
:10507000881270477CB504461BF098FD94F8A01088
:1050800004F12C0541F0010184F8A010F8B10128C9
:105090001DD002281DD113F075FF694614F040F9A8
:1050A0000322694620461AF00BFD0021204618F025
:1050B000B0F901280ED00026204607F0E9FD014690
:1050C00094F84C000E40B04206D0012205E0C4F82E
:1050D0009C507CBD0126EFE7002204F1380089B323
:1050E000009902B3D4F884209142F0DBE26F914240
:1050F0003ADC626FE16F009B891A01EBD17102EB20
:105100006102D11A002900DC991AD4F88460D4F81D
:105110008C20921B02EBD27206EB6206F21A002A76
:105120004ADC9A1B48E0D4F88C209142CFDC626FB5
:10513000914219DBDDE700BF44F89C5F207920F045
:10514000020006E007E000BF44F89C0F207940F021
:10515000020020717CBD01994AB1D4F8902091429F
:10516000B5DCA26F91420ADAC4F89C007CBDD4F889
:1051700088209142ABDBD4F880209142F4DCD4F853
:105180008020A16F521A02EBD27201EB62020199E8
:10519000511A002901DC0199891AD4F89030D4F809
:1051A00088209B1A03EBD37302EB6303019A9A1ACC
:1051B000002A01DC019AD21A8A42C5DABCE72DE93D
:1051C000FF4FB7B0154637981F460C468268DDF88A
:1051D0001081469E1DA80AF041F800287DD01DA828
:1051E0000AF02AF81C9005A82C22002116F039F9A3
:1051F0001C9816F005F803900B9000202190229047
:10520000239001234246294624A811F083FA24A8BA
:105210002190002F07DD00233A4621462DA811F0EA
:1052200079FA2DA8229010A805900D90BDF81401D0
:10523000ADF829009DF816018DF82B008DF8286037
:105240002068C1192868814200DD08461890A068CE
:10525000A968C01B884200DB08461A906068C11923
:105260006868814200DD08461990E068C11BE86863
:10527000814200DA08461B9018A809F0DDFF61683A
:105280006A68914201DC012100E000218946E16861
:10529000EA68914201DB012100E000218A46216891
:1052A0002A68914201DC012600E00026A168AA6874
:1052B000914201DB012200E00022904606EA08014B
:1052C00001EA09014FF0010B11EA0A0F03D032285D
:1052D00001DA4FF0000B012000E030E18DF83000E2
:1052E00019EA0B0F0CD0189810901A981290606859
:1052F0001190686805A9401E139037980FF0B1F916
:105300001AEA0B0F0CD0189810901A981290E868AF
:1053100005A9401C1190E068139037980FF0A1F98F
:105320002968A868814205DB96B1B8F1000F02D068
:10533000206812E066B120681090286805A9401E18
:105340001290199811901B98139037980FF089F9C3
:10535000B8F1000F0CD0A868401C1090A068129003
:10536000199811901B98139005A937980FF079F9A7
:105370001D98BBF1000F109006D018981F9A411E7F
:105380008A423EDA10463DE01F98129068686168D4
:10539000401AB84200DA3846814600252EE060689F
:1053A0004619E068A0EB05081E98B04202DD20997E
:1053B000414522DBFF211C9A039816F052F81C98F5
:1053C0000090334621A8109A039911F089F88DF8BE
:1053D00030001E98B04205DC119605A91396379847
:1053E0000FF03FF92099414507DBCDF8448005A92E
:1053F000CDF84C8037980FF034F96D1C4D45CEDB5D
:1054000092E0401E129010A809F016FF051E39DD2B
:1054100056EA090019D01E9C14E011942A46FF2177
:105420001394039816F01DF80095234621A8109AAE
:10543000039911F055F88DF8300005A937980FF051
:1054400010F9641C1998A042E7DC56EA0A0619D044
:105450001B9C13E011942A46FF211394039816F025
:1054600000F80095234621A8109A039911F038F806
:105470008DF8300005A937980FF0F3F82098641CD8
:10548000A042E7DA12991D98491C884201DD0146C5
:1054900001E01299491C10911A99491C884201DCBB
:1054A0001A98401C10901F98129010A809F0C4FE82
:1054B000051E39DD58EA090019D01E9C14E011942C
:1054C0002A46FF211394039815F0CBFF009523463D
:1054D00021A8109A039911F003F88DF8300005A95E
:1054E00037980FF0BEF8641C1998A042E7DC58EA20
:1054F0000A0019D01B9C13E011942A46FF21139433
:10550000039815F0AEFF0095234621A8109A039941
:1055100010F0E6FF8DF8300005A937980FF0A1F8DC
:105520002098641CA042E7DA24A811F017F8002F95
:1055300002DD2DA811F012F8039812F0E3FB3BB046
:10554000BDE8F08F2DE9FF4794B015460C46824622
:1055500004A82C220021209E15F083FFCDF810D046
:10556000BDF85C00ADF825009DF85E008DF82700C1
:105570008DF8246060686968884201DC012700E0DA
:105580000027E068E968884201DB012600E0002688
:1055900020682968884201DC012100E00021894659
:1055A000A168AA68914201DB012100E0002100907E
:1055B000A06802906068019068688846401E039069
:1055C0001FB104A950460FF04CF8E868401C019048
:1055D000E06803901EB104A950460FF042F820681D
:1055E00000902868401E02900FB1686800E0606873
:1055F00001900EB1E86800E0E0680390B9F1000F97
:1056000003D004A950460FF02CF8A868401C009065
:10561000A0680290B8F1000F03D004A950460FF023
:1056200020F818B0BDE8F0872DE9F04F8B46A2F5C1
:105630007F41A1B091460646FF3942D0F46A208DE1
:105640008046984204D02385608D40F00800608534
:105650004FF4802A5146204618F07EF907465146FD
:10566000204618F09DF90546384612F040FB0746E3
:10567000304604F0A4F980697A1909FB020001465A
:1056800005EBD570A1EB60001D9038446D1E2844D9
:105690001F90F06A41691C91C0691E9068460EF027
:1056A000A1FD6A465146204618F01DFC1CAA694619
:1056B00058460EF081FBA4F82880608D20F0080089
:1056C000608521B0BDE8F08F2DE9F04F0E46A2F5C0
:1056D0007F41A5B090460546FF395CD0EC6A278D26
:1056E0009F4204D02385608D40F00800608503A8A8
:1056F0000DF038FD4FF4802903AA4946204618F0E2
:1057000034FB4946204618F04BF91190284604F026
:1057100056F905003FD00B9812F0E9FA119AA969E1
:10572000131808FB031119911146199A01EBD17155
:10573000A2EB6101119A19911144401E08441B907B
:1057400060691890E0691A9018AA06F118011FA85C
:1057500009F084FDD0B118360DF17C0C96E80F00ED
:105760008046894692469B469CE80F0086E80F00DB
:105770002846183E14F07AFD0A9005F1140203A998
:1057800030460DF0BEFC183686E8000F2785608D88
:1057900020F00800608525B0BDE8F08F7FB5044695
:1057A000D0F8A85204E000BF0DF0C0FA0DF000FAE6
:1057B000A86B0028F8D120460CF0E2FA18B1264870
:1057C000006926F0ECFC01202063A16BC90702D020
:1057D000A16B890700D400206063606B08B10126CB
:1057E00000E00026A06A20B3286821696A4605699E
:1057F000D4F80003084400906169D4F80403084415
:1058000001902169D4F80803084402906169D4F832
:105810000C03084403903A2120460CF04FFBA36A86
:105820002A466946204698476A463B2120460CF0A6
:1058300045FB20460CF0A4FA00280BD094F8390060
:10584000012801D1002E05D0616AE069814200D1B2
:10585000206A60627FBD00009801002038B5406872
:105860000C46010C491E83B20022009111462046CD
:105870005B1E09F045FE38BD2DE9F047B8B005467E
:1058800011F0B1FF0446284611F0E4FF8246E06AB9
:1058900014F0ECFC054694F86400C00771D004A82D
:1058A0000EF0A0FC4FF4C02904AA4946204618F087
:1058B0001AFB04F15001684609F03BFCE06A0099CC
:1058C000426911440091019980696A460844019037
:1058D000E06A0299406908440290E06A039980698D
:1058E0000844039004A950460EF066FA4946204643
:1058F00017F0FBFD06464946204617F0D7FE8719EC
:105900004946204617F020FF4FF000081E49064484
:10591000CDF8D480CDF8D880206E09682844884717
:105920000246206E411935A815F0E0FC0098582277
:10593000384400900198414630440190E06A17F0E5
:1059400006FF054620A80DF00DFC20AA494620467A
:1059500018F00BFA9DF83000022805D829462B983C
:105960000BF0C4FE00280CD135A827909DF8CC0080
:105970006A4640F040008DF8CC0020A950460DF05A
:10598000C0FB38B0BDE8F08734FD02082DE9F04FC8
:10599000EDB0054638300E465E9015F0C3FB00288A
:1059A0007ED105F1140206F1180168A809F056FC31
:1059B000002875D0183668AC96E80F008346209111
:1059C000CDE9642394E80F0086E80F003DA8183E57
:1059D0000DF0F9FE4FF4C0243DAA2146284618F0E8
:1059E0001EFA21A80EF0FEFB21AA2146284618F037
:1059F0007AFA2146284618F010F800EBD0704710CC
:105A00002146284618F009F800EBD0704FEA600AEA
:105A10005E9815F00EFB90E040223DA94EA815F0CF
:105A200065FC702221A9684615F060FCA089ADF8DC
:105A30006401A07B8DF86601A089ADF82100A07BF0
:105A40008DF82300A08AC00502D5D4E900010BE03F
:105A5000A2686FF0004082426BD066AB2846216995
:105A60000BF04EF9DDE966016A6902EB0008A869EE
:105A700000EB010927B1BAF1000F01D0012000E0CD
:105A800000206690A8EB07005F9008EB070061908C
:105A9000A9EB0A00609009EB0A006290207D00E00B
:105AA00056E081071CD0C00701D0686900E040467D
:105AB000CDE95509207D800701D5E86900E0404621
:105AC000CDE957090020519003904EA930460DF0C2
:105AD0003EFE669820B15FAA694630460EF06CF92A
